{
  "contractName": "EthSwap",
  "abi": [
    {
      "inputs": [
        {
          "internalType": "contract Token",
          "name": "_token",
          "type": "address"
        }
      ],
      "stateMutability": "nonpayable",
      "type": "constructor"
    },
    {
      "inputs": [],
      "name": "name",
      "outputs": [
        {
          "internalType": "string",
          "name": "",
          "type": "string"
        }
      ],
      "stateMutability": "view",
      "type": "function",
      "constant": true
    },
    {
      "inputs": [],
      "name": "token",
      "outputs": [
        {
          "internalType": "contract Token",
          "name": "",
          "type": "address"
        }
      ],
      "stateMutability": "view",
      "type": "function",
      "constant": true
    }
  ],
  "bytecode": "0x60806040526040518060400160405280601881526020017f4574685377617020496e7374616e742045786368616e676500000000000000008152506000908051906020019061004f9291906100c5565b5034801561005c57600080fd5b50604051610577380380610577833981810160405281019061007e919061017d565b80600160006101000a81548173ffffffffffffffffffffffffffffffffffffffff021916908373ffffffffffffffffffffffffffffffffffffffff1602179055505061026b565b8280546100d1906101ee565b90600052602060002090601f0160209004810192826100f3576000855561013a565b82601f1061010c57805160ff191683800117855561013a565b8280016001018555821561013a579182015b8281111561013957825182559160200191906001019061011e565b5b509050610147919061014b565b5090565b5b8082111561016457600081600090555060010161014c565b5090565b60008151905061017781610254565b92915050565b6000602082840312156101935761019261024f565b5b60006101a184828501610168565b91505092915050565b60006101b5826101ce565b9050919050565b60006101c7826101aa565b9050919050565b600073ffffffffffffffffffffffffffffffffffffffff82169050919050565b6000600282049050600182168061020657607f821691505b6020821081141561021a57610219610220565b5b50919050565b7f4e487b7100000000000000000000000000000000000000000000000000000000600052602260045260246000fd5b600080fd5b61025d816101bc565b811461026857600080fd5b50565b6102fd8061027a6000396000f3fe608060405234801561001057600080fd5b50600436106100365760003560e01c806306fdde031461003b578063fc0c546a14610059575b600080fd5b610043610077565b604051610050919061018e565b60405180910390f35b610061610105565b60405161006e9190610173565b60405180910390f35b6000805461008490610255565b80601f01602080910402602001604051908101604052809291908181526020018280546100b090610255565b80156100fd5780601f106100d2576101008083540402835291602001916100fd565b820191906000526020600020905b8154815290600101906020018083116100e057829003601f168201915b505050505081565b600160009054906101000a900473ffffffffffffffffffffffffffffffffffffffff1681565b610134816101ec565b82525050565b6000610145826101b0565b61014f81856101bb565b935061015f818560208601610222565b610168816102b6565b840191505092915050565b6000602082019050610188600083018461012b565b92915050565b600060208201905081810360008301526101a8818461013a565b905092915050565b600081519050919050565b600082825260208201905092915050565b600073ffffffffffffffffffffffffffffffffffffffff82169050919050565b60006101f7826101fe565b9050919050565b600061020982610210565b9050919050565b600061021b826101cc565b9050919050565b60005b83811015610240578082015181840152602081019050610225565b8381111561024f576000848401525b50505050565b6000600282049050600182168061026d57607f821691505b6020821081141561028157610280610287565b5b50919050565b7f4e487b7100000000000000000000000000000000000000000000000000000000600052602260045260246000fd5b6000601f19601f830116905091905056fea264697066735822122049ab0b0ae74926397338ca45016cd38598bf71287e450f781553e18bebefc58564736f6c63430008070033",
  "immutableReferences": {},
  "source": "pragma solidity  ^0.8.7;\n\nimport \"./Token.sol\";\n\ncontract EthSwap {\n    string public name = \"EthSwap Instant Exchange\";\n    Token public token;\n\n    constructor(Token _token) public {\n        token = _token;\n    }\n}",
  "sourcePath": "/home/arthur/Documentos/crypto_workspace/blockchain/src/contracts/EthSwap.sol",
  "compiler": {
    "name": "solc",
    "version": "0.8.7+commit.e28d00a7.Emscripten.clang"
  },
  "schemaVersion": "3.4.3",
  "updatedAt": "2021-08-22T10:44:28.413Z",
  "networkType": "ethereum",
  "devdoc": {
    "kind": "dev",
    "methods": {},
    "version": 1
  },
  "userdoc": {
    "kind": "user",
    "methods": {},
    "version": 1
  }
}